{
    "abi": [
        {
            "inputs": [
                {
                    "internalType": "string",
                    "name": "_name",
                    "type": "string"
                },
                {
                    "internalType": "string",
                    "name": "_symbol",
                    "type": "string"
                }
            ],
            "stateMutability": "nonpayable",
            "type": "constructor"
        },
        {
            "anonymous": false,
            "inputs": [
                {
                    "indexed": true,
                    "internalType": "address",
                    "name": "owner",
                    "type": "address"
                },
                {
                    "indexed": true,
                    "internalType": "address",
                    "name": "approved",
                    "type": "address"
                },
                {
                    "indexed": true,
                    "internalType": "uint256",
                    "name": "tokenId",
                    "type": "uint256"
                }
            ],
            "name": "Approval",
            "type": "event"
        },
        {
            "anonymous": false,
            "inputs": [
                {
                    "indexed": true,
                    "internalType": "address",
                    "name": "owner",
                    "type": "address"
                },
                {
                    "indexed": true,
                    "internalType": "address",
                    "name": "operator",
                    "type": "address"
                },
                {
                    "indexed": false,
                    "internalType": "bool",
                    "name": "approved",
                    "type": "bool"
                }
            ],
            "name": "ApprovalForAll",
            "type": "event"
        },
        {
            "anonymous": false,
            "inputs": [
                {
                    "indexed": true,
                    "internalType": "address",
                    "name": "previousOwner",
                    "type": "address"
                },
                {
                    "indexed": true,
                    "internalType": "address",
                    "name": "newOwner",
                    "type": "address"
                }
            ],
            "name": "OwnershipTransferred",
            "type": "event"
        },
        {
            "anonymous": false,
            "inputs": [
                {
                    "indexed": false,
                    "internalType": "address",
                    "name": "account",
                    "type": "address"
                }
            ],
            "name": "Paused",
            "type": "event"
        },
        {
            "anonymous": false,
            "inputs": [
                {
                    "indexed": false,
                    "internalType": "string",
                    "name": "_value",
                    "type": "string"
                },
                {
                    "indexed": true,
                    "internalType": "uint256",
                    "name": "_id",
                    "type": "uint256"
                }
            ],
            "name": "PermanentURI",
            "type": "event"
        },
        {
            "anonymous": false,
            "inputs": [
                {
                    "indexed": false,
                    "internalType": "string",
                    "name": "tokenURI",
                    "type": "string"
                },
                {
                    "indexed": true,
                    "internalType": "address",
                    "name": "reserver",
                    "type": "address"
                },
                {
                    "indexed": true,
                    "internalType": "uint256",
                    "name": "reservationId",
                    "type": "uint256"
                }
            ],
            "name": "ReservationURIUpdated",
            "type": "event"
        },
        {
            "anonymous": false,
            "inputs": [
                {
                    "indexed": true,
                    "internalType": "address",
                    "name": "reserver",
                    "type": "address"
                },
                {
                    "indexed": true,
                    "internalType": "uint256",
                    "name": "reservationId",
                    "type": "uint256"
                }
            ],
            "name": "Reserved",
            "type": "event"
        },
        {
            "anonymous": false,
            "inputs": [
                {
                    "indexed": false,
                    "internalType": "string",
                    "name": "tokenURI",
                    "type": "string"
                },
                {
                    "indexed": true,
                    "internalType": "address",
                    "name": "owner",
                    "type": "address"
                },
                {
                    "indexed": true,
                    "internalType": "uint256",
                    "name": "tokenId",
                    "type": "uint256"
                }
            ],
            "name": "TokenMinted",
            "type": "event"
        },
        {
            "anonymous": false,
            "inputs": [
                {
                    "indexed": true,
                    "internalType": "address",
                    "name": "from",
                    "type": "address"
                },
                {
                    "indexed": true,
                    "internalType": "address",
                    "name": "to",
                    "type": "address"
                },
                {
                    "indexed": true,
                    "internalType": "uint256",
                    "name": "tokenId",
                    "type": "uint256"
                }
            ],
            "name": "Transfer",
            "type": "event"
        },
        {
            "anonymous": false,
            "inputs": [
                {
                    "indexed": false,
                    "internalType": "address",
                    "name": "account",
                    "type": "address"
                }
            ],
            "name": "Unpaused",
            "type": "event"
        },
        {
            "inputs": [
                {
                    "internalType": "address",
                    "name": "to",
                    "type": "address"
                },
                {
                    "internalType": "uint256",
                    "name": "tokenId",
                    "type": "uint256"
                }
            ],
            "name": "approve",
            "outputs": [],
            "stateMutability": "nonpayable",
            "type": "function"
        },
        {
            "inputs": [
                {
                    "internalType": "address",
                    "name": "owner",
                    "type": "address"
                }
            ],
            "name": "balanceOf",
            "outputs": [
                {
                    "internalType": "uint256",
                    "name": "",
                    "type": "uint256"
                }
            ],
            "stateMutability": "view",
            "type": "function"
        },
        {
            "inputs": [
                {
                    "internalType": "uint256",
                    "name": "tokenId",
                    "type": "uint256"
                }
            ],
            "name": "burn",
            "outputs": [],
            "stateMutability": "nonpayable",
            "type": "function"
        },
        {
            "inputs": [
                {
                    "internalType": "uint256",
                    "name": "tokenId",
                    "type": "uint256"
                }
            ],
            "name": "getApproved",
            "outputs": [
                {
                    "internalType": "address",
                    "name": "",
                    "type": "address"
                }
            ],
            "stateMutability": "view",
            "type": "function"
        },
        {
            "inputs": [
                {
                    "internalType": "address",
                    "name": "owner",
                    "type": "address"
                },
                {
                    "internalType": "address",
                    "name": "operator",
                    "type": "address"
                }
            ],
            "name": "isApprovedForAll",
            "outputs": [
                {
                    "internalType": "bool",
                    "name": "",
                    "type": "bool"
                }
            ],
            "stateMutability": "view",
            "type": "function"
        },
        {
            "inputs": [
                {
                    "internalType": "address",
                    "name": "to",
                    "type": "address"
                },
                {
                    "internalType": "uint256",
                    "name": "reservationId",
                    "type": "uint256"
                }
            ],
            "name": "mintReservation",
            "outputs": [
                {
                    "internalType": "uint256",
                    "name": "tokenId",
                    "type": "uint256"
                }
            ],
            "stateMutability": "payable",
            "type": "function"
        },
        {
            "inputs": [],
            "name": "name",
            "outputs": [
                {
                    "internalType": "string",
                    "name": "",
                    "type": "string"
                }
            ],
            "stateMutability": "view",
            "type": "function"
        },
        {
            "inputs": [],
            "name": "owner",
            "outputs": [
                {
                    "internalType": "address",
                    "name": "",
                    "type": "address"
                }
            ],
            "stateMutability": "view",
            "type": "function"
        },
        {
            "inputs": [
                {
                    "internalType": "uint256",
                    "name": "tokenId",
                    "type": "uint256"
                }
            ],
            "name": "ownerOf",
            "outputs": [
                {
                    "internalType": "address",
                    "name": "",
                    "type": "address"
                }
            ],
            "stateMutability": "view",
            "type": "function"
        },
        {
            "inputs": [],
            "name": "pause",
            "outputs": [],
            "stateMutability": "nonpayable",
            "type": "function"
        },
        {
            "inputs": [],
            "name": "paused",
            "outputs": [
                {
                    "internalType": "bool",
                    "name": "",
                    "type": "bool"
                }
            ],
            "stateMutability": "view",
            "type": "function"
        },
        {
            "inputs": [],
            "name": "renounceOwnership",
            "outputs": [],
            "stateMutability": "nonpayable",
            "type": "function"
        },
        {
            "inputs": [
                {
                    "internalType": "uint256",
                    "name": "",
                    "type": "uint256"
                }
            ],
            "name": "reservations",
            "outputs": [
                {
                    "internalType": "address",
                    "name": "reserver",
                    "type": "address"
                },
                {
                    "internalType": "string",
                    "name": "tokenURI",
                    "type": "string"
                }
            ],
            "stateMutability": "view",
            "type": "function"
        },
        {
            "inputs": [],
            "name": "reserve",
            "outputs": [
                {
                    "internalType": "uint256",
                    "name": "",
                    "type": "uint256"
                }
            ],
            "stateMutability": "nonpayable",
            "type": "function"
        },
        {
            "inputs": [
                {
                    "internalType": "address",
                    "name": "from",
                    "type": "address"
                },
                {
                    "internalType": "address",
                    "name": "to",
                    "type": "address"
                },
                {
                    "internalType": "uint256",
                    "name": "tokenId",
                    "type": "uint256"
                }
            ],
            "name": "safeTransferFrom",
            "outputs": [],
            "stateMutability": "nonpayable",
            "type": "function"
        },
        {
            "inputs": [
                {
                    "internalType": "address",
                    "name": "from",
                    "type": "address"
                },
                {
                    "internalType": "address",
                    "name": "to",
                    "type": "address"
                },
                {
                    "internalType": "uint256",
                    "name": "tokenId",
                    "type": "uint256"
                },
                {
                    "internalType": "bytes",
                    "name": "data",
                    "type": "bytes"
                }
            ],
            "name": "safeTransferFrom",
            "outputs": [],
            "stateMutability": "nonpayable",
            "type": "function"
        },
        {
            "inputs": [
                {
                    "internalType": "address",
                    "name": "operator",
                    "type": "address"
                },
                {
                    "internalType": "bool",
                    "name": "approved",
                    "type": "bool"
                }
            ],
            "name": "setApprovalForAll",
            "outputs": [],
            "stateMutability": "nonpayable",
            "type": "function"
        },
        {
            "inputs": [
                {
                    "internalType": "bytes4",
                    "name": "interfaceId",
                    "type": "bytes4"
                }
            ],
            "name": "supportsInterface",
            "outputs": [
                {
                    "internalType": "bool",
                    "name": "",
                    "type": "bool"
                }
            ],
            "stateMutability": "view",
            "type": "function"
        },
        {
            "inputs": [],
            "name": "symbol",
            "outputs": [
                {
                    "internalType": "string",
                    "name": "",
                    "type": "string"
                }
            ],
            "stateMutability": "view",
            "type": "function"
        },
        {
            "inputs": [
                {
                    "internalType": "uint256",
                    "name": "index",
                    "type": "uint256"
                }
            ],
            "name": "tokenByIndex",
            "outputs": [
                {
                    "internalType": "uint256",
                    "name": "",
                    "type": "uint256"
                }
            ],
            "stateMutability": "view",
            "type": "function"
        },
        {
            "inputs": [
                {
                    "internalType": "address",
                    "name": "owner",
                    "type": "address"
                },
                {
                    "internalType": "uint256",
                    "name": "index",
                    "type": "uint256"
                }
            ],
            "name": "tokenOfOwnerByIndex",
            "outputs": [
                {
                    "internalType": "uint256",
                    "name": "",
                    "type": "uint256"
                }
            ],
            "stateMutability": "view",
            "type": "function"
        },
        {
            "inputs": [
                {
                    "internalType": "uint256",
                    "name": "tokenId",
                    "type": "uint256"
                }
            ],
            "name": "tokenURI",
            "outputs": [
                {
                    "internalType": "string",
                    "name": "",
                    "type": "string"
                }
            ],
            "stateMutability": "view",
            "type": "function"
        },
        {
            "inputs": [],
            "name": "totalSupply",
            "outputs": [
                {
                    "internalType": "uint256",
                    "name": "",
                    "type": "uint256"
                }
            ],
            "stateMutability": "view",
            "type": "function"
        },
        {
            "inputs": [
                {
                    "internalType": "address",
                    "name": "from",
                    "type": "address"
                },
                {
                    "internalType": "address",
                    "name": "to",
                    "type": "address"
                },
                {
                    "internalType": "uint256",
                    "name": "tokenId",
                    "type": "uint256"
                }
            ],
            "name": "transferFrom",
            "outputs": [],
            "stateMutability": "nonpayable",
            "type": "function"
        },
        {
            "inputs": [
                {
                    "internalType": "address",
                    "name": "newOwner",
                    "type": "address"
                }
            ],
            "name": "transferOwnership",
            "outputs": [],
            "stateMutability": "nonpayable",
            "type": "function"
        },
        {
            "inputs": [],
            "name": "unpause",
            "outputs": [],
            "stateMutability": "nonpayable",
            "type": "function"
        },
        {
            "inputs": [
                {
                    "internalType": "uint256",
                    "name": "amount",
                    "type": "uint256"
                }
            ],
            "name": "updatePrice",
            "outputs": [],
            "stateMutability": "nonpayable",
            "type": "function"
        },
        {
            "inputs": [
                {
                    "internalType": "uint256",
                    "name": "reservationId",
                    "type": "uint256"
                },
                {
                    "internalType": "string",
                    "name": "_tokenURI",
                    "type": "string"
                }
            ],
            "name": "updateReservationURI",
            "outputs": [],
            "stateMutability": "nonpayable",
            "type": "function"
        },
        {
            "inputs": [],
            "name": "withdrawAll",
            "outputs": [],
            "stateMutability": "payable",
            "type": "function"
        }
    ],
    "bytecode": {
        "object": "0x60806040526000600d553480156200001657600080fd5b5060405162002aed38038062002aed833981016040819052620000399162000197565b8181600062000049838262000290565b50600162000058828262000290565b5050600b805460ff1916905550620000703362000078565b50506200035c565b600b80546001600160a01b03838116610100818102610100600160a81b031985161790945560405193909204169182907f8be0079c531659141344cd1fd0a4f28419497f9722a3daafe3b4186f6b6457e090600090a35050565b634e487b7160e01b600052604160045260246000fd5b600082601f830112620000fa57600080fd5b81516001600160401b0380821115620001175762000117620000d2565b604051601f8301601f19908116603f01168101908282118183101715620001425762000142620000d2565b816040528381526020925086838588010111156200015f57600080fd5b600091505b8382101562000183578582018301518183018401529082019062000164565b600093810190920192909252949350505050565b60008060408385031215620001ab57600080fd5b82516001600160401b0380821115620001c357600080fd5b620001d186838701620000e8565b93506020850151915080821115620001e857600080fd5b50620001f785828601620000e8565b9150509250929050565b600181811c908216806200021657607f821691505b6020821081036200023757634e487b7160e01b600052602260045260246000fd5b50919050565b601f8211156200028b57600081815260208120601f850160051c81016020861015620002665750805b601f850160051c820191505b81811015620002875782815560010162000272565b5050505b505050565b81516001600160401b03811115620002ac57620002ac620000d2565b620002c481620002bd845462000201565b846200023d565b602080601f831160018114620002fc5760008415620002e35750858301515b600019600386901b1c1916600185901b17855562000287565b600085815260208120601f198616915b828110156200032d578886015182559484019460019091019084016200030c565b50858210156200034c5787850151600019600388901b60f8161c191681555b5050505050600190811b01905550565b612781806200036c6000396000f3fe6080604052600436106101c25760003560e01c806370a08231116100f757806395d89b4111610095578063c87b56dd11610064578063c87b56dd146104cf578063cd3293de146104ef578063e985e9c514610504578063f2fde38b1461054d57600080fd5b806395d89b4114610467578063a22cb4651461047c578063b88d4fde1461049c578063bbacf43b146104bc57600080fd5b8063853828b6116100d1578063853828b6146103fc5780638928e88d146104045780638d6cc56d146104245780638da5cb5b1461044457600080fd5b806370a08231146103b2578063715018a6146103d25780638456cb59146103e757600080fd5b80632f745c591161016457806342966c681161013e57806342966c681461033a5780634f6ccce71461035a5780635c975abb1461037a5780636352211e1461039257600080fd5b80632f745c59146102e55780633f4ba83a1461030557806342842e0e1461031a57600080fd5b8063081812fc116101a0578063081812fc1461024c578063095ea7b31461028457806318160ddd146102a657806323b872dd146102c557600080fd5b806301ffc9a7146101c7578063067cf832146101fc57806306fdde031461022a575b600080fd5b3480156101d357600080fd5b506101e76101e2366004611f6a565b61056d565b60405190151581526020015b60405180910390f35b34801561020857600080fd5b5061021c610217366004611f87565b61057e565b6040516101f3929190611ff0565b34801561023657600080fd5b5061023f61062d565b6040516101f39190612014565b34801561025857600080fd5b5061026c610267366004611f87565b6106bf565b6040516001600160a01b0390911681526020016101f3565b34801561029057600080fd5b506102a461029f366004612043565b6106e6565b005b3480156102b257600080fd5b506008545b6040519081526020016101f3565b3480156102d157600080fd5b506102a46102e036600461206d565b610800565b3480156102f157600080fd5b506102b7610300366004612043565b610832565b34801561031157600080fd5b506102a46108c8565b34801561032657600080fd5b506102a461033536600461206d565b6108da565b34801561034657600080fd5b506102a4610355366004611f87565b6108f5565b34801561036657600080fd5b506102b7610375366004611f87565b610926565b34801561038657600080fd5b50600b5460ff166101e7565b34801561039e57600080fd5b5061026c6103ad366004611f87565b6109b9565b3480156103be57600080fd5b506102b76103cd3660046120a9565b610a19565b3480156103de57600080fd5b506102a4610a9f565b3480156103f357600080fd5b506102a4610ab1565b6102a4610ac1565b34801561041057600080fd5b506102a461041f3660046120c4565b610aed565b34801561043057600080fd5b506102a461043f366004611f87565b610bcb565b34801561045057600080fd5b50600b5461010090046001600160a01b031661026c565b34801561047357600080fd5b5061023f610bd8565b34801561048857600080fd5b506102a4610497366004612140565b610be7565b3480156104a857600080fd5b506102a46104b7366004612192565b610bf6565b6102b76104ca366004612043565b610c2e565b3480156104db57600080fd5b5061023f6104ea366004611f87565b610e6d565b3480156104fb57600080fd5b506102b7610e78565b34801561051057600080fd5b506101e761051f36600461226e565b6001600160a01b03918216600090815260056020908152604080832093909416825291909152205460ff1690565b34801561055957600080fd5b506102a46105683660046120a9565b610f42565b600061057882610fb8565b92915050565b600e60205260009081526040902080546001820180546001600160a01b0390921692916105aa906122a1565b80601f01602080910402602001604051908101604052809291908181526020018280546105d6906122a1565b80156106235780601f106105f857610100808354040283529160200191610623565b820191906000526020600020905b81548152906001019060200180831161060657829003601f168201915b5050505050905082565b60606000805461063c906122a1565b80601f0160208091040260200160405190810160405280929190818152602001828054610668906122a1565b80156106b55780601f1061068a576101008083540402835291602001916106b5565b820191906000526020600020905b81548152906001019060200180831161069857829003601f168201915b5050505050905090565b60006106ca82610fdd565b506000908152600460205260409020546001600160a01b031690565b60006106f1826109b9565b9050806001600160a01b0316836001600160a01b0316036107635760405162461bcd60e51b815260206004820152602160248201527f4552433732313a20617070726f76616c20746f2063757272656e74206f776e656044820152603960f91b60648201526084015b60405180910390fd5b336001600160a01b038216148061077f575061077f813361051f565b6107f15760405162461bcd60e51b815260206004820152603d60248201527f4552433732313a20617070726f76652063616c6c6572206973206e6f7420746f60448201527f6b656e206f776e6572206f7220617070726f76656420666f7220616c6c000000606482015260840161075a565b6107fb838361103c565b505050565b61080b335b826110aa565b6108275760405162461bcd60e51b815260040161075a906122db565b6107fb838383611129565b600061083d83610a19565b821061089f5760405162461bcd60e51b815260206004820152602b60248201527f455243373231456e756d657261626c653a206f776e657220696e646578206f7560448201526a74206f6620626f756e647360a81b606482015260840161075a565b506001600160a01b03919091166000908152600660209081526040808320938352929052205490565b6108d06112df565b6108d861133f565b565b6107fb83838360405180602001604052806000815250610bf6565b6108fe33610805565b61091a5760405162461bcd60e51b815260040161075a906122db565b61092381611391565b50565b600061093160085490565b82106109945760405162461bcd60e51b815260206004820152602c60248201527f455243373231456e756d657261626c653a20676c6f62616c20696e646578206f60448201526b7574206f6620626f756e647360a01b606482015260840161075a565b600882815481106109a7576109a7612328565b90600052602060002001549050919050565b6000818152600260205260408120546001600160a01b0316806105785760405162461bcd60e51b8152602060048201526018602482015277115490cdcc8c4e881a5b9d985b1a59081d1bdad95b88125160421b604482015260640161075a565b60006001600160a01b038216610a835760405162461bcd60e51b815260206004820152602960248201527f4552433732313a2061646472657373207a65726f206973206e6f7420612076616044820152683634b21037bbb732b960b91b606482015260840161075a565b506001600160a01b031660009081526003602052604090205490565b610aa76112df565b6108d8600061139a565b610ab96112df565b6108d86113f4565b610ac96112df565b60405133904780156108fc02916000818181858888f193505050506108d857600080fd5b6000838152600e60205260409020546001600160a01b03163314610b655760405162461bcd60e51b815260206004820152602960248201527f5265736572766174696f6e206e6f742076616c6964206f72206e6f74206f776e604482015268656420627920796f7560b81b606482015260840161075a565b6000838152600e60205260409020600101610b8182848361238c565b5082336001600160a01b03167f50941a0769dc923c336f0c033c51146f921394eb982b9d601568a1211cbafada8484604051610bbe92919061244d565b60405180910390a3505050565b610bd36112df565b600d55565b60606001805461063c906122a1565b610bf2338383611431565b5050565b610c0033836110aa565b610c1c5760405162461bcd60e51b815260040161075a906122db565b610c28848484846114f7565b50505050565b6000600d543414610c815760405162461bcd60e51b815260206004820181905260248201527f457468657220616d6f756e742073656e74206973206e6f7420636f7272656374604482015260640161075a565b6000828152600e60205260409020546001600160a01b03163314610ce75760405162461bcd60e51b815260206004820152601e60248201527f4950204e46543a2063616c6c6572206973206e6f742072657365727665720000604482015260640161075a565b610cf1838361152a565b6000828152600e602052604090206001018054610d96918491610d13906122a1565b80601f0160208091040260200160405190810160405280929190818152602001828054610d3f906122a1565b8015610d8c5780601f10610d6157610100808354040283529160200191610d8c565b820191906000526020600020905b815481529060010190602001808311610d6f57829003601f168201915b5050505050611544565b817fa109ba539900bf1b633f956d63c96fc89b814c7287f7aa50a9216d0b55657207600e6000858152602001908152602001600020600101604051610ddb919061247c565b60405180910390a281836001600160a01b03167f49522ac02f185590a69664d36007f8350295f3fea7a03b2a726eee4d8101677a600e6000868152602001908152602001600020600101604051610e32919061247c565b60405180910390a36000828152600e6020526040812080546001600160a01b031916815590610e646001830182611f06565b50919392505050565b6060610578826115d7565b600080610e84600c5490565b9050610e94600c80546001019055565b6040518060400160405280610ea63390565b6001600160a01b0390811682526040805160208082018352600080835294810191909152858452600e81529220835181546001600160a01b0319169216919091178155908201516001820190610efc9082612507565b5090505080610f083390565b6001600160a01b03167f904dcdc411e931497b95b06ddf8f8184815dd3bedc3c7c7cd4aed3ccd30783d860405160405180910390a3919050565b610f4a6112df565b6001600160a01b038116610faf5760405162461bcd60e51b815260206004820152602660248201527f4f776e61626c653a206e6577206f776e657220697320746865207a65726f206160448201526564647265737360d01b606482015260840161075a565b6109238161139a565b60006001600160e01b0319821663780e9d6360e01b14806105785750610578826116df565b6000818152600260205260409020546001600160a01b03166109235760405162461bcd60e51b8152602060048201526018602482015277115490cdcc8c4e881a5b9d985b1a59081d1bdad95b88125160421b604482015260640161075a565b600081815260046020526040902080546001600160a01b0319166001600160a01b0384169081179091558190611071826109b9565b6001600160a01b03167f8c5be1e5ebec7d5bd14f71427d1e84f3dd0314c0f7b2291e5b200ac8c7c3b92560405160405180910390a45050565b6000806110b6836109b9565b9050806001600160a01b0316846001600160a01b031614806110fd57506001600160a01b0380821660009081526005602090815260408083209388168352929052205460ff165b806111215750836001600160a01b0316611116846106bf565b6001600160a01b0316145b949350505050565b826001600160a01b031661113c826109b9565b6001600160a01b0316146111a05760405162461bcd60e51b815260206004820152602560248201527f4552433732313a207472616e736665722066726f6d20696e636f72726563742060448201526437bbb732b960d91b606482015260840161075a565b6001600160a01b0382166112025760405162461bcd60e51b8152602060048201526024808201527f4552433732313a207472616e7366657220746f20746865207a65726f206164646044820152637265737360e01b606482015260840161075a565b61120d83838361172f565b600081815260046020908152604080832080546001600160a01b03191690556001600160a01b0386168352600390915281208054600192906112509084906125dd565b90915550506001600160a01b038216600090815260036020526040812080546001929061127e9084906125f0565b909155505060008181526002602052604080822080546001600160a01b0319166001600160a01b0386811691821790925591518493918716917fddf252ad1be2c89b69c2b068fc378daa952ba7f163c4a11628f55a4df523b3ef91a4505050565b600b546001600160a01b036101009091041633146108d85760405162461bcd60e51b815260206004820181905260248201527f4f776e61626c653a2063616c6c6572206973206e6f7420746865206f776e6572604482015260640161075a565b611347611742565b600b805460ff191690557f5db9ee0a495bf2e6ff9c91a7834c1ba4fdd244a5e8aa4e537bd38aeae4b073aa335b6040516001600160a01b03909116815260200160405180910390a1565b6109238161178b565b600b80546001600160a01b03838116610100818102610100600160a81b031985161790945560405193909204169182907f8be0079c531659141344cd1fd0a4f28419497f9722a3daafe3b4186f6b6457e090600090a35050565b6113fc6117cb565b600b805460ff191660011790557f62e78cea01bee320cd4e420270b5ea74000d11b0c9f74754ebdbfc544b05a2586113743390565b816001600160a01b0316836001600160a01b0316036114925760405162461bcd60e51b815260206004820152601960248201527f4552433732313a20617070726f766520746f2063616c6c657200000000000000604482015260640161075a565b6001600160a01b03838116600081815260056020908152604080832094871680845294825291829020805460ff191686151590811790915591519182527f17307eab39ab6107e8899845ad3d59bd9653f200f220920489ca2b5937696c319101610bbe565b611502848484611129565b61150e84848484611811565b610c285760405162461bcd60e51b815260040161075a90612603565b610bf2828260405180602001604052806000815250611912565b6000828152600260205260409020546001600160a01b03166115bf5760405162461bcd60e51b815260206004820152602e60248201527f45524337323155524953746f726167653a2055524920736574206f66206e6f6e60448201526d32bc34b9ba32b73a103a37b5b2b760911b606482015260840161075a565b6000828152600a602052604090206107fb8282612507565b60606115e282610fdd565b6000828152600a6020526040812080546115fb906122a1565b80601f0160208091040260200160405190810160405280929190818152602001828054611627906122a1565b80156116745780601f1061164957610100808354040283529160200191611674565b820191906000526020600020905b81548152906001019060200180831161165757829003601f168201915b50505050509050600061169260408051602081019091526000815290565b905080516000036116a4575092915050565b8151156116d65780826040516020016116be929190612655565b60405160208183030381529060405292505050919050565b61112184611945565b60006001600160e01b031982166380ac58cd60e01b148061171057506001600160e01b03198216635b5e139f60e01b145b8061057857506301ffc9a760e01b6001600160e01b0319831614610578565b6117376117cb565b6107fb8383836119b9565b600b5460ff166108d85760405162461bcd60e51b815260206004820152601460248201527314185d5cd8589b194e881b9bdd081c185d5cd95960621b604482015260640161075a565b61179481611a71565b6000818152600a6020526040902080546117ad906122a1565b159050610923576000818152600a6020526040812061092391611f06565b600b5460ff16156108d85760405162461bcd60e51b815260206004820152601060248201526f14185d5cd8589b194e881c185d5cd95960821b604482015260640161075a565b60006001600160a01b0384163b1561190757604051630a85bd0160e11b81526001600160a01b0385169063150b7a0290611855903390899088908890600401612684565b6020604051808303816000875af1925050508015611890575060408051601f3d908101601f1916820190925261188d918101906126c1565b60015b6118ed573d8080156118be576040519150601f19603f3d011682016040523d82523d6000602084013e6118c3565b606091505b5080516000036118e55760405162461bcd60e51b815260040161075a90612603565b805181602001fd5b6001600160e01b031916630a85bd0160e11b149050611121565b506001949350505050565b61191c8383611b27565b6119296000848484611811565b6107fb5760405162461bcd60e51b815260040161075a90612603565b606061195082610fdd565b600061196760408051602081019091526000815290565b9050600081511161198757604051806020016040528060008152506119b2565b8061199184611c75565b6040516020016119a2929190612655565b6040516020818303038152906040525b9392505050565b6001600160a01b038316611a1457611a0f81600880546000838152600960205260408120829055600182018355919091527ff3f7a9fe364faab93b216da50a3214154f22a0a2b415b23a84c8169e8b636ee30155565b611a37565b816001600160a01b0316836001600160a01b031614611a3757611a378382611d76565b6001600160a01b038216611a4e576107fb81611e13565b826001600160a01b0316826001600160a01b0316146107fb576107fb8282611ec2565b6000611a7c826109b9565b9050611a8a8160008461172f565b600082815260046020908152604080832080546001600160a01b03191690556001600160a01b038416835260039091528120805460019290611acd9084906125dd565b909155505060008281526002602052604080822080546001600160a01b0319169055518391906001600160a01b038416907fddf252ad1be2c89b69c2b068fc378daa952ba7f163c4a11628f55a4df523b3ef908390a45050565b6001600160a01b038216611b7d5760405162461bcd60e51b815260206004820181905260248201527f4552433732313a206d696e7420746f20746865207a65726f2061646472657373604482015260640161075a565b6000818152600260205260409020546001600160a01b031615611be25760405162461bcd60e51b815260206004820152601c60248201527f4552433732313a20746f6b656e20616c7265616479206d696e74656400000000604482015260640161075a565b611bee6000838361172f565b6001600160a01b0382166000908152600360205260408120805460019290611c179084906125f0565b909155505060008181526002602052604080822080546001600160a01b0319166001600160a01b03861690811790915590518392907fddf252ad1be2c89b69c2b068fc378daa952ba7f163c4a11628f55a4df523b3ef908290a45050565b606081600003611c9c5750506040805180820190915260018152600360fc1b602082015290565b8160005b8115611cc65780611cb0816126de565b9150611cbf9050600a8361270d565b9150611ca0565b60008167ffffffffffffffff811115611ce157611ce161217c565b6040519080825280601f01601f191660200182016040528015611d0b576020820181803683370190505b5090505b841561112157611d206001836125dd565b9150611d2d600a86612721565b611d389060306125f0565b60f81b818381518110611d4d57611d4d612328565b60200101906001600160f81b031916908160001a905350611d6f600a8661270d565b9450611d0f565b60006001611d8384610a19565b611d8d91906125dd565b600083815260076020526040902054909150808214611de0576001600160a01b03841660009081526006602090815260408083208584528252808320548484528184208190558352600790915290208190555b5060009182526007602090815260408084208490556001600160a01b039094168352600681528383209183525290812055565b600854600090611e25906001906125dd565b60008381526009602052604081205460088054939450909284908110611e4d57611e4d612328565b906000526020600020015490508060088381548110611e6e57611e6e612328565b6000918252602080832090910192909255828152600990915260408082208490558582528120556008805480611ea657611ea6612735565b6001900381819060005260206000200160009055905550505050565b6000611ecd83610a19565b6001600160a01b039093166000908152600660209081526040808320868452825280832085905593825260079052919091209190915550565b508054611f12906122a1565b6000825580601f10611f22575050565b601f01602090049060005260206000209081019061092391905b80821115611f505760008155600101611f3c565b5090565b6001600160e01b03198116811461092357600080fd5b600060208284031215611f7c57600080fd5b81356119b281611f54565b600060208284031215611f9957600080fd5b5035919050565b60005b83811015611fbb578181015183820152602001611fa3565b50506000910152565b60008151808452611fdc816020860160208601611fa0565b601f01601f19169290920160200192915050565b6001600160a01b038316815260406020820181905260009061112190830184611fc4565b6020815260006119b26020830184611fc4565b80356001600160a01b038116811461203e57600080fd5b919050565b6000806040838503121561205657600080fd5b61205f83612027565b946020939093013593505050565b60008060006060848603121561208257600080fd5b61208b84612027565b925061209960208501612027565b9150604084013590509250925092565b6000602082840312156120bb57600080fd5b6119b282612027565b6000806000604084860312156120d957600080fd5b83359250602084013567ffffffffffffffff808211156120f857600080fd5b818601915086601f83011261210c57600080fd5b81358181111561211b57600080fd5b87602082850101111561212d57600080fd5b6020830194508093505050509250925092565b6000806040838503121561215357600080fd5b61215c83612027565b91506020830135801515811461217157600080fd5b809150509250929050565b634e487b7160e01b600052604160045260246000fd5b600080600080608085870312156121a857600080fd5b6121b185612027565b93506121bf60208601612027565b925060408501359150606085013567ffffffffffffffff808211156121e357600080fd5b818701915087601f8301126121f757600080fd5b8135818111156122095761220961217c565b604051601f8201601f19908116603f011681019083821181831017156122315761223161217c565b816040528281528a602084870101111561224a57600080fd5b82602086016020830137600060208483010152809550505050505092959194509250565b6000806040838503121561228157600080fd5b61228a83612027565b915061229860208401612027565b90509250929050565b600181811c908216806122b557607f821691505b6020821081036122d557634e487b7160e01b600052602260045260246000fd5b50919050565b6020808252602d908201527f4552433732313a2063616c6c6572206973206e6f7420746f6b656e206f776e6560408201526c1c881bdc88185c1c1c9bdd9959609a1b606082015260800190565b634e487b7160e01b600052603260045260246000fd5b601f8211156107fb57600081815260208120601f850160051c810160208610156123655750805b601f850160051c820191505b8181101561238457828155600101612371565b505050505050565b67ffffffffffffffff8311156123a4576123a461217c565b6123b8836123b283546122a1565b8361233e565b6000601f8411600181146123ec57600085156123d45750838201355b600019600387901b1c1916600186901b178355612446565b600083815260209020601f19861690835b8281101561241d57868501358255602094850194600190920191016123fd565b508682101561243a5760001960f88860031b161c19848701351681555b505060018560011b0183555b5050505050565b60208152816020820152818360408301376000818301604090810191909152601f909201601f19160101919050565b6000602080835260008454612490816122a1565b808487015260406001808416600081146124b157600181146124cb576124f9565b60ff1985168984015283151560051b8901830195506124f9565b896000528660002060005b858110156124f15781548b82018601529083019088016124d6565b8a0184019650505b509398975050505050505050565b815167ffffffffffffffff8111156125215761252161217c565b6125358161252f84546122a1565b8461233e565b602080601f83116001811461256a57600084156125525750858301515b600019600386901b1c1916600185901b178555612384565b600085815260208120601f198616915b828110156125995788860151825594840194600190910190840161257a565b50858210156125b75787850151600019600388901b60f8161c191681555b5050505050600190811b01905550565b634e487b7160e01b600052601160045260246000fd5b81810381811115610578576105786125c7565b80820180821115610578576105786125c7565b60208082526032908201527f4552433732313a207472616e7366657220746f206e6f6e20455243373231526560408201527131b2b4bb32b91034b6b83632b6b2b73a32b960711b606082015260800190565b60008351612667818460208801611fa0565b83519083019061267b818360208801611fa0565b01949350505050565b6001600160a01b03858116825284166020820152604081018390526080606082018190526000906126b790830184611fc4565b9695505050505050565b6000602082840312156126d357600080fd5b81516119b281611f54565b6000600182016126f0576126f06125c7565b5060010190565b634e487b7160e01b600052601260045260246000fd5b60008261271c5761271c6126f7565b500490565b600082612730576127306126f7565b500690565b634e487b7160e01b600052603160045260246000fdfea2646970667358221220aa9d6b5ba51ba06ca492402db4e4bace8b479d69dc0add7e95f9710f99f13c7964736f6c63430008110033",
        "linkReferences": {}
    },
    "methodIdentifiers": {
        "approve(address,uint256)": "095ea7b3",
        "balanceOf(address)": "70a08231",
        "burn(uint256)": "42966c68",
        "getApproved(uint256)": "081812fc",
        "isApprovedForAll(address,address)": "e985e9c5",
        "mintReservation(address,uint256)": "bbacf43b",
        "name()": "06fdde03",
        "owner()": "8da5cb5b",
        "ownerOf(uint256)": "6352211e",
        "pause()": "8456cb59",
        "paused()": "5c975abb",
        "renounceOwnership()": "715018a6",
        "reservations(uint256)": "067cf832",
        "reserve()": "cd3293de",
        "safeTransferFrom(address,address,uint256)": "42842e0e",
        "safeTransferFrom(address,address,uint256,bytes)": "b88d4fde",
        "setApprovalForAll(address,bool)": "a22cb465",
        "supportsInterface(bytes4)": "01ffc9a7",
        "symbol()": "95d89b41",
        "tokenByIndex(uint256)": "4f6ccce7",
        "tokenOfOwnerByIndex(address,uint256)": "2f745c59",
        "tokenURI(uint256)": "c87b56dd",
        "totalSupply()": "18160ddd",
        "transferFrom(address,address,uint256)": "23b872dd",
        "transferOwnership(address)": "f2fde38b",
        "unpause()": "3f4ba83a",
        "updatePrice(uint256)": "8d6cc56d",
        "updateReservationURI(uint256,string)": "8928e88d",
        "withdrawAll()": "853828b6"
    },
    "id": 23
}